{
  "contractName": "PropertyRegistry",
  "abi": [
    {
      "constant": true,
      "inputs": [
        {
          "name": "",
          "type": "uint256"
        }
      ],
      "name": "stayData",
      "outputs": [
        {
          "name": "price",
          "type": "uint256"
        },
        {
          "name": "stays",
          "type": "uint256"
        },
        {
          "name": "occupant",
          "type": "address"
        }
      ],
      "payable": false,
      "stateMutability": "view",
      "type": "function"
    },
    {
      "inputs": [
        {
          "name": "_property",
          "type": "address"
        },
        {
          "name": "_propertyToken",
          "type": "address"
        }
      ],
      "payable": false,
      "stateMutability": "nonpayable",
      "type": "constructor"
    },
    {
      "anonymous": false,
      "inputs": [
        {
          "indexed": true,
          "name": "_tokenId",
          "type": "uint256"
        }
      ],
      "name": "Registered",
      "type": "event"
    },
    {
      "anonymous": false,
      "inputs": [
        {
          "indexed": true,
          "name": "_tokenId",
          "type": "uint256"
        }
      ],
      "name": "Approved",
      "type": "event"
    },
    {
      "anonymous": false,
      "inputs": [
        {
          "indexed": true,
          "name": "_tokenId",
          "type": "uint256"
        }
      ],
      "name": "Requested",
      "type": "event"
    },
    {
      "anonymous": false,
      "inputs": [
        {
          "indexed": true,
          "name": "_tokenId",
          "type": "uint256"
        }
      ],
      "name": "CheckIn",
      "type": "event"
    },
    {
      "anonymous": false,
      "inputs": [
        {
          "indexed": true,
          "name": "_tokenId",
          "type": "uint256"
        }
      ],
      "name": "CheckOut",
      "type": "event"
    },
    {
      "constant": false,
      "inputs": [
        {
          "name": "_tokenId",
          "type": "uint256"
        },
        {
          "name": "_price",
          "type": "uint256"
        }
      ],
      "name": "registerProperty",
      "outputs": [],
      "payable": false,
      "stateMutability": "nonpayable",
      "type": "function"
    },
    {
      "constant": false,
      "inputs": [
        {
          "name": "_tokenId",
          "type": "uint256"
        },
        {
          "name": "_checkIn",
          "type": "uint256"
        },
        {
          "name": "_checkOut",
          "type": "uint256"
        }
      ],
      "name": "request",
      "outputs": [],
      "payable": false,
      "stateMutability": "nonpayable",
      "type": "function"
    },
    {
      "constant": false,
      "inputs": [
        {
          "name": "_tokenId",
          "type": "uint256"
        },
        {
          "name": "_for",
          "type": "address"
        }
      ],
      "name": "approveRequest",
      "outputs": [],
      "payable": false,
      "stateMutability": "nonpayable",
      "type": "function"
    },
    {
      "constant": false,
      "inputs": [
        {
          "name": "_tokenId",
          "type": "uint256"
        }
      ],
      "name": "checkIn",
      "outputs": [],
      "payable": false,
      "stateMutability": "nonpayable",
      "type": "function"
    },
    {
      "constant": false,
      "inputs": [
        {
          "name": "_tokenId",
          "type": "uint256"
        }
      ],
      "name": "checkOut",
      "outputs": [],
      "payable": false,
      "stateMutability": "nonpayable",
      "type": "function"
    },
    {
      "constant": true,
      "inputs": [
        {
          "name": "_tokenId",
          "type": "uint256"
        },
        {
          "name": "_from",
          "type": "address"
        }
      ],
      "name": "getRequests",
      "outputs": [
        {
          "name": "_checkIn",
          "type": "uint256"
        },
        {
          "name": "_checkOut",
          "type": "uint256"
        },
        {
          "name": "_approved",
          "type": "bool"
        }
      ],
      "payable": false,
      "stateMutability": "view",
      "type": "function"
    },
    {
      "constant": true,
      "inputs": [
        {
          "name": "_tokenId",
          "type": "uint256"
        }
      ],
      "name": "getStayData",
      "outputs": [
        {
          "name": "_price",
          "type": "uint256"
        },
        {
          "name": "_stays",
          "type": "uint256"
        },
        {
          "name": "_occupant",
          "type": "address"
        }
      ],
      "payable": false,
      "stateMutability": "view",
      "type": "function"
    }
  ],
  "bytecode": "0x608060405234801561001057600080fd5b5060405160408061107e833981018060405281019080805190602001909291908051906020019092919050505081600160006101000a81548173ffffffffffffffffffffffffffffffffffffffff021916908373ffffffffffffffffffffffffffffffffffffffff16021790555080600260006101000a81548173ffffffffffffffffffffffffffffffffffffffff021916908373ffffffffffffffffffffffffffffffffffffffff1602179055505050610fae806100d06000396000f30060806040526004361061008e576000357c0100000000000000000000000000000000000000000000000000000000900463ffffffff1680631bd2eeee1461009357806331288747146100c05780637415733b14610133578063bc045df8146101ae578063c2e10ef8146101fb578063e65befd114610232578063e95a644f14610273578063f4daaa35146102a0575b600080fd5b34801561009f57600080fd5b506100be6004803603810190808035906020019092919050505061031b565b005b3480156100cc57600080fd5b5061010b60048036038101908080359060200190929190803573ffffffffffffffffffffffffffffffffffffffff169060200190929190505050610688565b6040518084815260200183815260200182151515158152602001935050505060405180910390f35b34801561013f57600080fd5b5061015e6004803603810190808035906020019092919050505061070c565b604051808481526020018381526020018273ffffffffffffffffffffffffffffffffffffffff1673ffffffffffffffffffffffffffffffffffffffff168152602001935050505060405180910390f35b3480156101ba57600080fd5b506101f960048036038101908080359060200190929190803573ffffffffffffffffffffffffffffffffffffffff169060200190929190505050610756565b005b34801561020757600080fd5b5061023060048036038101908080359060200190929190803590602001909291905050506108fc565b005b34801561023e57600080fd5b50610271600480360381019080803590602001909291908035906020019092919080359060200190929190505050610ad8565b005b34801561027f57600080fd5b5061029e60048036038101908080359060200190929190505050610bb2565b005b3480156102ac57600080fd5b506102cb60048036038101908080359060200190929190505050610e96565b604051808481526020018381526020018273ffffffffffffffffffffffffffffffffffffffff1673ffffffffffffffffffffffffffffffffffffffff168152602001935050505060405180910390f35b600080600083815260200190815260200160002060030160003373ffffffffffffffffffffffffffffffffffffffff1673ffffffffffffffffffffffffffffffffffffffff16815260200190815260200160002090503373ffffffffffffffffffffffffffffffffffffffff1660008084815260200190815260200160002060020160009054906101000a900473ffffffffffffffffffffffffffffffffffffffff1673ffffffffffffffffffffffffffffffffffffffff161415156103e057600080fd5b8060010154421015156103f257600080fd5b600260009054906101000a900473ffffffffffffffffffffffffffffffffffffffff1673ffffffffffffffffffffffffffffffffffffffff1663a9059cbb600160009054906101000a900473ffffffffffffffffffffffffffffffffffffffff1673ffffffffffffffffffffffffffffffffffffffff16636352211e856040518263ffffffff167c010000000000000000000000000000000000000000000000000000000002815260040180828152602001915050602060405180830381600087803b1580156104c157600080fd5b505af11580156104d5573d6000803e3d6000fd5b505050506040513d60208110156104eb57600080fd5b8101908080519060200190929190505050600080868152602001908152602001600020600001546040518363ffffffff167c0100000000000000000000000000000000000000000000000000000000028152600401808373ffffffffffffffffffffffffffffffffffffffff1673ffffffffffffffffffffffffffffffffffffffff16815260200182815260200192505050602060405180830381600087803b15801561059757600080fd5b505af11580156105ab573d6000803e3d6000fd5b505050506040513d60208110156105c157600080fd5b810190808051906020019092919050505015156105dd57600080fd5b600080600084815260200190815260200160002060020160006101000a81548173ffffffffffffffffffffffffffffffffffffffff021916908373ffffffffffffffffffffffffffffffffffffffff16021790555060008083815260200190815260200160002060010160008154809291906001019190505550817f2c276699fefbad45f18509233bc03bb9cfdf41b18f32756933188bdef35fef5560405160405180910390a25050565b60008060008060008087815260200190815260200160002060030160008673ffffffffffffffffffffffffffffffffffffffff1673ffffffffffffffffffffffffffffffffffffffff1681526020019081526020016000209050806000015481600101548260020160009054906101000a900460ff16935093509350509250925092565b60006020528060005260406000206000915090508060000154908060010154908060020160009054906101000a900473ffffffffffffffffffffffffffffffffffffffff16905083565b813373ffffffffffffffffffffffffffffffffffffffff16600160009054906101000a900473ffffffffffffffffffffffffffffffffffffffff1673ffffffffffffffffffffffffffffffffffffffff16636352211e836040518263ffffffff167c010000000000000000000000000000000000000000000000000000000002815260040180828152602001915050602060405180830381600087803b1580156107ff57600080fd5b505af1158015610813573d6000803e3d6000fd5b505050506040513d602081101561082957600080fd5b810190808051906020019092919050505073ffffffffffffffffffffffffffffffffffffffff1614151561085c57600080fd5b600160008085815260200190815260200160002060030160008473ffffffffffffffffffffffffffffffffffffffff1673ffffffffffffffffffffffffffffffffffffffff16815260200190815260200160002060020160006101000a81548160ff021916908315150217905550827f3ad93af63cb7967b23e4fb500b7d7d28b07516325dcf341f88bebf959d82c1cb60405160405180910390a2505050565b813373ffffffffffffffffffffffffffffffffffffffff16600160009054906101000a900473ffffffffffffffffffffffffffffffffffffffff1673ffffffffffffffffffffffffffffffffffffffff16636352211e836040518263ffffffff167c010000000000000000000000000000000000000000000000000000000002815260040180828152602001915050602060405180830381600087803b1580156109a557600080fd5b505af11580156109b9573d6000803e3d6000fd5b505050506040513d60208110156109cf57600080fd5b810190808051906020019092919050505073ffffffffffffffffffffffffffffffffffffffff16141515610a0257600080fd5b60606040519081016040528083815260200160008152602001600073ffffffffffffffffffffffffffffffffffffffff16815250600080858152602001908152602001600020600082015181600001556020820151816001015560408201518160020160006101000a81548173ffffffffffffffffffffffffffffffffffffffff021916908373ffffffffffffffffffffffffffffffffffffffff160217905550905050827f1fcb8fd4a09d0facf37b6e1cd47a0cce5aa0b069a1d3d5bd9c223220fa1f5a1c60405160405180910390a2505050565b6060604051908101604052808381526020018281526020016000151581525060008085815260200190815260200160002060030160003373ffffffffffffffffffffffffffffffffffffffff1673ffffffffffffffffffffffffffffffffffffffff168152602001908152602001600020600082015181600001556020820151816001015560408201518160020160006101000a81548160ff021916908315150217905550905050827f54593fbf3d0e13af724316e44a7387ee756ab753993496c7009658e83217002c60405160405180910390a2505050565b600080600083815260200190815260200160002060030160003373ffffffffffffffffffffffffffffffffffffffff1673ffffffffffffffffffffffffffffffffffffffff1681526020019081526020016000209050600115158160020160009054906101000a900460ff161515141515610c2c57600080fd5b806000015442118015610c425750806001015442105b1515610c4d57600080fd5b600073ffffffffffffffffffffffffffffffffffffffff1660008084815260200190815260200160002060020160009054906101000a900473ffffffffffffffffffffffffffffffffffffffff1673ffffffffffffffffffffffffffffffffffffffff16141515610cbd57600080fd5b600260009054906101000a900473ffffffffffffffffffffffffffffffffffffffff1673ffffffffffffffffffffffffffffffffffffffff166323b872dd3330600080878152602001908152602001600020600001546040518463ffffffff167c0100000000000000000000000000000000000000000000000000000000028152600401808473ffffffffffffffffffffffffffffffffffffffff1673ffffffffffffffffffffffffffffffffffffffff1681526020018373ffffffffffffffffffffffffffffffffffffffff1673ffffffffffffffffffffffffffffffffffffffff1681526020018281526020019350505050602060405180830381600087803b158015610dcb57600080fd5b505af1158015610ddf573d6000803e3d6000fd5b505050506040513d6020811015610df557600080fd5b81019080805190602001909291905050501515610e1157600080fd5b3360008084815260200190815260200160002060020160006101000a81548173ffffffffffffffffffffffffffffffffffffffff021916908373ffffffffffffffffffffffffffffffffffffffff160217905550817fdf06c27528e294967ba5e32e69b9c5fe102a58c699c44740c2c4c6afc719253560405160405180910390a25050565b6000806000610ea3610f4a565b6000808681526020019081526020016000206060604051908101604052908160008201548152602001600182015481526020016002820160009054906101000a900473ffffffffffffffffffffffffffffffffffffffff1673ffffffffffffffffffffffffffffffffffffffff1673ffffffffffffffffffffffffffffffffffffffff16815250509050806000015181602001518260400151935093509350509193909250565b6060604051908101604052806000815260200160008152602001600073ffffffffffffffffffffffffffffffffffffffff16815250905600a165627a7a723058201d1e1b2b5b7223f05e3d861498aa0fb2b634f757e6cf89ba89db9250de66568e0029",
  "source": "pragma solidity ^0.4.24;\n\nimport 'zeppelin-solidity/contracts/token/ERC721/ERC721Basic.sol';\nimport 'zeppelin-solidity/contracts/token/ERC20/ERC20.sol';\n\ncontract PropertyRegistry {\n    mapping(uint256 => Data) public stayData;\n    \n    struct Request {\n        uint256 checkIn;\n        uint256 checkOut;\n        bool approved;\n    }\n\n    struct Data {\n        uint256 price;\n        uint256 stays;\n        address occupant;\n        mapping(address => Request) requests;\n    }\n\n    // initialize the property registry variable\n    ERC721Basic property;\n    ERC20 propertyToken;\n    //set up the property contract as minimum interface \n    //to prove ownership ERC721Basic\n    constructor(address _property, address _propertyToken) public {\n        property = ERC721Basic(_property);\n        propertyToken = ERC20(_propertyToken);\n    }\n\n    event Registered(uint256 indexed _tokenId);\n    event Approved(uint256 indexed _tokenId);\n    event Requested(uint256 indexed _tokenId);\n    event CheckIn(uint256 indexed _tokenId);\n    event CheckOut(uint256 indexed _tokenId);\n\n    modifier onlyOwner(uint256 _tokenId) {\n        require(property.ownerOf(_tokenId) == msg.sender);\n        _;\n    }\n\n    function registerProperty(uint256 _tokenId, uint256 _price) external onlyOwner(_tokenId) {\n        stayData[_tokenId] = Data(_price, 0, address(0));\n        emit Registered(_tokenId);\n    }\n\n    function request(uint256 _tokenId, uint256 _checkIn, uint256 _checkOut) external {\n        stayData[_tokenId].requests[msg.sender] = Request(_checkIn, _checkOut, false);\n        emit Requested(_tokenId);\n    }\n\n    function approveRequest(uint256 _tokenId, address _for) external onlyOwner(_tokenId) {\n        stayData[_tokenId].requests[_for].approved = true;\n        emit Approved(_tokenId);\n    }\n\n    function checkIn(uint256 _tokenId) external {\n        Request storage req = stayData[_tokenId].requests[msg.sender];\n        require(req.approved == true);\n        require(now > req.checkIn && now < req.checkOut);\n        require(stayData[_tokenId].occupant == address(0));\n        require(propertyToken.transferFrom(msg.sender, address(this), stayData[_tokenId].price));\n        stayData[_tokenId].occupant = msg.sender;\n        emit CheckIn(_tokenId);\n    }\n\n    function checkOut(uint256 _tokenId) external {\n        Request storage req = stayData[_tokenId].requests[msg.sender];\n        require(stayData[_tokenId].occupant == msg.sender);\n        require(now < req.checkOut);\n        require(propertyToken.transfer(property.ownerOf(_tokenId), stayData[_tokenId].price));\n        stayData[_tokenId].occupant = address(0);\n        stayData[_tokenId].stays++;\n        emit CheckOut(_tokenId);\n    }\n\n    function getRequests(uint256 _tokenId, address _from) public view returns(uint256 _checkIn, uint256 _checkOut, bool _approved) {\n        Request storage req = stayData[_tokenId].requests[_from];\n        return (req.checkIn, req.checkOut, req.approved);\n    }\n\n    function getStayData(uint256 _tokenId) external view returns (uint256 _price, uint256 _stays, address _occupant) {\n        Data memory data = stayData[_tokenId];\n        return (data.price, data.stays, data.occupant);\n    }\n}",
  "sourcePath": "/Users/vincent.chan/Documents/blockchain/W4/bnb/contracts/PropertyRegistry.sol",
  "compiler": {
    "name": "solc",
    "version": "0.4.24+commit.e67f0147.Emscripten.clang"
  },
  "schemaVersion": "2.0.1",
  "updatedAt": "2018-12-04T03:50:38.559Z"
}