{
  "contractName": "PropertyRegistry",
  "abi": [
    {
      "constant": true,
      "inputs": [
        {
          "name": "",
          "type": "uint256"
        }
      ],
      "name": "stayData",
      "outputs": [
        {
          "name": "price",
          "type": "uint256"
        },
        {
          "name": "stays",
          "type": "uint256"
        },
        {
          "name": "occupant",
          "type": "address"
        },
        {
          "name": "requested",
          "type": "address"
        },
        {
          "name": "approved",
          "type": "address"
        },
        {
          "name": "checkIn",
          "type": "uint256"
        },
        {
          "name": "checkOut",
          "type": "uint256"
        }
      ],
      "payable": false,
      "stateMutability": "view",
      "type": "function"
    },
    {
      "inputs": [
        {
          "name": "_property",
          "type": "address"
        },
        {
          "name": "_propertyToken",
          "type": "address"
        }
      ],
      "payable": false,
      "stateMutability": "nonpayable",
      "type": "constructor"
    },
    {
      "constant": false,
      "inputs": [
        {
          "name": "_tokenId",
          "type": "uint256"
        },
        {
          "name": "_price",
          "type": "uint256"
        }
      ],
      "name": "registerProperty",
      "outputs": [],
      "payable": false,
      "stateMutability": "nonpayable",
      "type": "function"
    },
    {
      "constant": false,
      "inputs": [
        {
          "name": "_tokenId",
          "type": "uint256"
        },
        {
          "name": "_checkIn",
          "type": "uint256"
        },
        {
          "name": "_checkOut",
          "type": "uint256"
        }
      ],
      "name": "request",
      "outputs": [],
      "payable": false,
      "stateMutability": "nonpayable",
      "type": "function"
    },
    {
      "constant": false,
      "inputs": [
        {
          "name": "_tokenId",
          "type": "uint256"
        }
      ],
      "name": "approveRequest",
      "outputs": [],
      "payable": false,
      "stateMutability": "nonpayable",
      "type": "function"
    },
    {
      "constant": false,
      "inputs": [
        {
          "name": "_tokenId",
          "type": "uint256"
        }
      ],
      "name": "checkIn",
      "outputs": [],
      "payable": false,
      "stateMutability": "nonpayable",
      "type": "function"
    },
    {
      "constant": false,
      "inputs": [
        {
          "name": "_tokenId",
          "type": "uint256"
        }
      ],
      "name": "checkOut",
      "outputs": [],
      "payable": false,
      "stateMutability": "nonpayable",
      "type": "function"
    }
  ],
  "bytecode": "0x608060405234801561001057600080fd5b50604051604080610e9e833981018060405281019080805190602001909291908051906020019092919050505081600160006101000a81548173ffffffffffffffffffffffffffffffffffffffff021916908373ffffffffffffffffffffffffffffffffffffffff16021790555080600260006101000a81548173ffffffffffffffffffffffffffffffffffffffff021916908373ffffffffffffffffffffffffffffffffffffffff1602179055505050610dce806100d06000396000f300608060405260043610610078576000357c0100000000000000000000000000000000000000000000000000000000900463ffffffff1680631bd2eeee1461007d5780637415733b146100aa578063c2e10ef814610199578063d7d1bbdb146101d0578063e65befd1146101fd578063e95a644f1461023e575b600080fd5b34801561008957600080fd5b506100a86004803603810190808035906020019092919050505061026b565b005b3480156100b657600080fd5b506100d560048036038101908080359060200190929190505050610565565b604051808881526020018781526020018673ffffffffffffffffffffffffffffffffffffffff1673ffffffffffffffffffffffffffffffffffffffff1681526020018573ffffffffffffffffffffffffffffffffffffffff1673ffffffffffffffffffffffffffffffffffffffff1681526020018473ffffffffffffffffffffffffffffffffffffffff1673ffffffffffffffffffffffffffffffffffffffff16815260200183815260200182815260200197505050505050505060405180910390f35b3480156101a557600080fd5b506101ce6004803603810190808035906020019092919080359060200190929190505050610607565b005b3480156101dc57600080fd5b506101fb600480360381019080803590602001909291905050506108a0565b005b34801561020957600080fd5b5061023c600480360381019080803590602001909291908035906020019092919080359060200190929190505050610a33565b005b34801561024a57600080fd5b5061026960048036038101908080359060200190929190505050610b30565b005b3373ffffffffffffffffffffffffffffffffffffffff1660008083815260200190815260200160002060020160009054906101000a900473ffffffffffffffffffffffffffffffffffffffff1673ffffffffffffffffffffffffffffffffffffffff161415156102da57600080fd5b60008082815260200190815260200160002060060154421015156102fd57600080fd5b600260009054906101000a900473ffffffffffffffffffffffffffffffffffffffff1673ffffffffffffffffffffffffffffffffffffffff1663a9059cbb600160009054906101000a900473ffffffffffffffffffffffffffffffffffffffff1673ffffffffffffffffffffffffffffffffffffffff16636352211e846040518263ffffffff167c010000000000000000000000000000000000000000000000000000000002815260040180828152602001915050602060405180830381600087803b1580156103cc57600080fd5b505af11580156103e0573d6000803e3d6000fd5b505050506040513d60208110156103f657600080fd5b8101908080519060200190929190505050600080858152602001908152602001600020600001546040518363ffffffff167c0100000000000000000000000000000000000000000000000000000000028152600401808373ffffffffffffffffffffffffffffffffffffffff1673ffffffffffffffffffffffffffffffffffffffff16815260200182815260200192505050602060405180830381600087803b1580156104a257600080fd5b505af11580156104b6573d6000803e3d6000fd5b505050506040513d60208110156104cc57600080fd5b810190808051906020019092919050505015156104e857600080fd5b600080600083815260200190815260200160002060030160006101000a81548173ffffffffffffffffffffffffffffffffffffffff021916908373ffffffffffffffffffffffffffffffffffffffff1602179055506000808281526020019081526020016000206001016000815480929190600101919050555050565b60006020528060005260406000206000915090508060000154908060010154908060020160009054906101000a900473ffffffffffffffffffffffffffffffffffffffff16908060030160009054906101000a900473ffffffffffffffffffffffffffffffffffffffff16908060040160009054906101000a900473ffffffffffffffffffffffffffffffffffffffff16908060050154908060060154905087565b813373ffffffffffffffffffffffffffffffffffffffff16600160009054906101000a900473ffffffffffffffffffffffffffffffffffffffff1673ffffffffffffffffffffffffffffffffffffffff16636352211e836040518263ffffffff167c010000000000000000000000000000000000000000000000000000000002815260040180828152602001915050602060405180830381600087803b1580156106b057600080fd5b505af11580156106c4573d6000803e3d6000fd5b505050506040513d60208110156106da57600080fd5b810190808051906020019092919050505073ffffffffffffffffffffffffffffffffffffffff1614151561070d57600080fd5b60e06040519081016040528083815260200160008152602001600073ffffffffffffffffffffffffffffffffffffffff168152602001600073ffffffffffffffffffffffffffffffffffffffff168152602001600073ffffffffffffffffffffffffffffffffffffffff168152602001600081526020016000815250600080858152602001908152602001600020600082015181600001556020820151816001015560408201518160020160006101000a81548173ffffffffffffffffffffffffffffffffffffffff021916908373ffffffffffffffffffffffffffffffffffffffff16021790555060608201518160030160006101000a81548173ffffffffffffffffffffffffffffffffffffffff021916908373ffffffffffffffffffffffffffffffffffffffff16021790555060808201518160040160006101000a81548173ffffffffffffffffffffffffffffffffffffffff021916908373ffffffffffffffffffffffffffffffffffffffff16021790555060a0820151816005015560c08201518160060155905050505050565b803373ffffffffffffffffffffffffffffffffffffffff16600160009054906101000a900473ffffffffffffffffffffffffffffffffffffffff1673ffffffffffffffffffffffffffffffffffffffff16636352211e836040518263ffffffff167c010000000000000000000000000000000000000000000000000000000002815260040180828152602001915050602060405180830381600087803b15801561094957600080fd5b505af115801561095d573d6000803e3d6000fd5b505050506040513d602081101561097357600080fd5b810190808051906020019092919050505073ffffffffffffffffffffffffffffffffffffffff161415156109a657600080fd5b60008083815260200190815260200160002060030160009054906101000a900473ffffffffffffffffffffffffffffffffffffffff1660008084815260200190815260200160002060040160006101000a81548173ffffffffffffffffffffffffffffffffffffffff021916908373ffffffffffffffffffffffffffffffffffffffff1602179055505050565b600073ffffffffffffffffffffffffffffffffffffffff1660008085815260200190815260200160002060030160009054906101000a900473ffffffffffffffffffffffffffffffffffffffff1673ffffffffffffffffffffffffffffffffffffffff16141515610aa357600080fd5b3360008085815260200190815260200160002060030160006101000a81548173ffffffffffffffffffffffffffffffffffffffff021916908373ffffffffffffffffffffffffffffffffffffffff16021790555081600080858152602001908152602001600020600501819055508060008085815260200190815260200160002060060181905550505050565b3373ffffffffffffffffffffffffffffffffffffffff1660008083815260200190815260200160002060040160009054906101000a900473ffffffffffffffffffffffffffffffffffffffff1673ffffffffffffffffffffffffffffffffffffffff16141515610b9f57600080fd5b6000808281526020019081526020016000206005015442111515610bc257600080fd5b600260009054906101000a900473ffffffffffffffffffffffffffffffffffffffff1673ffffffffffffffffffffffffffffffffffffffff166323b872dd3330600080868152602001908152602001600020600001546040518463ffffffff167c0100000000000000000000000000000000000000000000000000000000028152600401808473ffffffffffffffffffffffffffffffffffffffff1673ffffffffffffffffffffffffffffffffffffffff1681526020018373ffffffffffffffffffffffffffffffffffffffff1673ffffffffffffffffffffffffffffffffffffffff1681526020018281526020019350505050602060405180830381600087803b158015610cd057600080fd5b505af1158015610ce4573d6000803e3d6000fd5b505050506040513d6020811015610cfa57600080fd5b81019080805190602001909291905050501515610d1657600080fd5b60008082815260200190815260200160002060040160009054906101000a900473ffffffffffffffffffffffffffffffffffffffff1660008083815260200190815260200160002060020160006101000a81548173ffffffffffffffffffffffffffffffffffffffff021916908373ffffffffffffffffffffffffffffffffffffffff160217905550505600a165627a7a72305820fd2c6f880d51a98c59261a55f24fc3cae2b12de3d013c646f7b929c05a682fb50029",
  "source": "pragma solidity ^0.4.24;\n\nimport 'zeppelin-solidity/contracts/token/ERC721/ERC721Basic.sol';\nimport 'zeppelin-solidity/contracts/token/ERC20/ERC20.sol';\n\ncontract PropertyRegistry {\n    mapping(uint256 => Data) public stayData;\n\n    struct Data {\n        uint256 price;\n        uint256 stays;\n        address occupant;\n        address requested;\n        address approved;\n        uint256 checkIn;\n        uint256 checkOut;\n    }\n\n    // initialize the property registry variable\n    ERC721Basic property;\n    ERC20 propertyToken;\n    //set up the property contract as minimum interface \n    //to prove ownership ERC721Basic\n    constructor(address _property, address _propertyToken) public {\n        property = ERC721Basic(_property);\n        propertyToken = ERC20(_propertyToken);\n    }\n\n    modifier onlyOwner(uint256 _tokenId) {\n        require(property.ownerOf(_tokenId) == msg.sender);\n        _;\n    }\n\n    function registerProperty(uint256 _tokenId, uint256 _price) external onlyOwner(_tokenId) {\n        stayData[_tokenId] = Data(_price, 0, address(0), address(0), address(0), 0, 0);\n    }\n\n    function request(uint256 _tokenId, uint256 _checkIn, uint256 _checkOut) external {\n        require(stayData[_tokenId].requested == address(0));\n        stayData[_tokenId].requested = msg.sender;\n        stayData[_tokenId].checkIn = _checkIn;\n        stayData[_tokenId].checkOut = _checkOut;\n    }\n\n    function approveRequest(uint256 _tokenId) external onlyOwner(_tokenId) {\n        stayData[_tokenId].approved = stayData[_tokenId].requested;\n    }\n\n    function checkIn(uint256 _tokenId) external {\n        require(stayData[_tokenId].approved == msg.sender);\n        require(now > stayData[_tokenId].checkIn);\n        //REQUIRED: transfer tokens to propertyRegistry upon successful check in\n        //the message sender should have approved thre propertyRegistry to transfer\n        //at least stayData[_tokenId].price tokens\n        //address(this) == this contract address\n        require(propertyToken.transferFrom(msg.sender, address(this), stayData[_tokenId].price));\n        //move approved guest to occupant\n        stayData[_tokenId].occupant = stayData[_tokenId].approved;\n    }\n\n    function checkOut(uint256 _tokenId) external {\n        require(stayData[_tokenId].occupant == msg.sender);\n        require(now < stayData[_tokenId].checkOut);\n        //REQUIRED: transfer tokens to Alice upon successful check out\n        require(propertyToken.transfer(property.ownerOf(_tokenId), stayData[_tokenId].price));\n        //clear the request to let another guest request\n        stayData[_tokenId].requested = address(0);\n        stayData[_tokenId].stays++;\n    }\n}",
  "sourcePath": "/Users/vincent.chan/Documents/blockchain/W4D2/bnb/contracts/PropertyRegistry.sol",
  "compiler": {
    "name": "solc",
    "version": "0.4.24+commit.e67f0147.Emscripten.clang"
  },
  "schemaVersion": "2.0.1",
  "updatedAt": "2018-11-21T00:25:42.405Z"
}