{
  "contractName": "Property",
  "abi": [
    {
      "constant": true,
      "inputs": [
        {
          "name": "_interfaceId",
          "type": "bytes4"
        }
      ],
      "name": "supportsInterface",
      "outputs": [
        {
          "name": "",
          "type": "bool"
        }
      ],
      "payable": false,
      "stateMutability": "view",
      "type": "function"
    },
    {
      "constant": true,
      "inputs": [],
      "name": "name",
      "outputs": [
        {
          "name": "",
          "type": "string"
        }
      ],
      "payable": false,
      "stateMutability": "view",
      "type": "function"
    },
    {
      "constant": true,
      "inputs": [
        {
          "name": "_tokenId",
          "type": "uint256"
        }
      ],
      "name": "getApproved",
      "outputs": [
        {
          "name": "",
          "type": "address"
        }
      ],
      "payable": false,
      "stateMutability": "view",
      "type": "function"
    },
    {
      "constant": false,
      "inputs": [
        {
          "name": "_to",
          "type": "address"
        },
        {
          "name": "_tokenId",
          "type": "uint256"
        }
      ],
      "name": "approve",
      "outputs": [],
      "payable": false,
      "stateMutability": "nonpayable",
      "type": "function"
    },
    {
      "constant": true,
      "inputs": [],
      "name": "totalSupply",
      "outputs": [
        {
          "name": "",
          "type": "uint256"
        }
      ],
      "payable": false,
      "stateMutability": "view",
      "type": "function"
    },
    {
      "constant": true,
      "inputs": [],
      "name": "InterfaceId_ERC165",
      "outputs": [
        {
          "name": "",
          "type": "bytes4"
        }
      ],
      "payable": false,
      "stateMutability": "view",
      "type": "function"
    },
    {
      "constant": false,
      "inputs": [
        {
          "name": "_from",
          "type": "address"
        },
        {
          "name": "_to",
          "type": "address"
        },
        {
          "name": "_tokenId",
          "type": "uint256"
        }
      ],
      "name": "transferFrom",
      "outputs": [],
      "payable": false,
      "stateMutability": "nonpayable",
      "type": "function"
    },
    {
      "constant": true,
      "inputs": [
        {
          "name": "_owner",
          "type": "address"
        },
        {
          "name": "_index",
          "type": "uint256"
        }
      ],
      "name": "tokenOfOwnerByIndex",
      "outputs": [
        {
          "name": "",
          "type": "uint256"
        }
      ],
      "payable": false,
      "stateMutability": "view",
      "type": "function"
    },
    {
      "constant": false,
      "inputs": [
        {
          "name": "_from",
          "type": "address"
        },
        {
          "name": "_to",
          "type": "address"
        },
        {
          "name": "_tokenId",
          "type": "uint256"
        }
      ],
      "name": "safeTransferFrom",
      "outputs": [],
      "payable": false,
      "stateMutability": "nonpayable",
      "type": "function"
    },
    {
      "constant": true,
      "inputs": [
        {
          "name": "_tokenId",
          "type": "uint256"
        }
      ],
      "name": "exists",
      "outputs": [
        {
          "name": "",
          "type": "bool"
        }
      ],
      "payable": false,
      "stateMutability": "view",
      "type": "function"
    },
    {
      "constant": true,
      "inputs": [
        {
          "name": "_index",
          "type": "uint256"
        }
      ],
      "name": "tokenByIndex",
      "outputs": [
        {
          "name": "",
          "type": "uint256"
        }
      ],
      "payable": false,
      "stateMutability": "view",
      "type": "function"
    },
    {
      "constant": true,
      "inputs": [
        {
          "name": "_tokenId",
          "type": "uint256"
        }
      ],
      "name": "ownerOf",
      "outputs": [
        {
          "name": "",
          "type": "address"
        }
      ],
      "payable": false,
      "stateMutability": "view",
      "type": "function"
    },
    {
      "constant": true,
      "inputs": [
        {
          "name": "_owner",
          "type": "address"
        }
      ],
      "name": "balanceOf",
      "outputs": [
        {
          "name": "",
          "type": "uint256"
        }
      ],
      "payable": false,
      "stateMutability": "view",
      "type": "function"
    },
    {
      "constant": true,
      "inputs": [],
      "name": "symbol",
      "outputs": [
        {
          "name": "",
          "type": "string"
        }
      ],
      "payable": false,
      "stateMutability": "view",
      "type": "function"
    },
    {
      "constant": false,
      "inputs": [
        {
          "name": "_to",
          "type": "address"
        },
        {
          "name": "_approved",
          "type": "bool"
        }
      ],
      "name": "setApprovalForAll",
      "outputs": [],
      "payable": false,
      "stateMutability": "nonpayable",
      "type": "function"
    },
    {
      "constant": false,
      "inputs": [
        {
          "name": "_from",
          "type": "address"
        },
        {
          "name": "_to",
          "type": "address"
        },
        {
          "name": "_tokenId",
          "type": "uint256"
        },
        {
          "name": "_data",
          "type": "bytes"
        }
      ],
      "name": "safeTransferFrom",
      "outputs": [],
      "payable": false,
      "stateMutability": "nonpayable",
      "type": "function"
    },
    {
      "constant": true,
      "inputs": [
        {
          "name": "_tokenId",
          "type": "uint256"
        }
      ],
      "name": "tokenURI",
      "outputs": [
        {
          "name": "",
          "type": "string"
        }
      ],
      "payable": false,
      "stateMutability": "view",
      "type": "function"
    },
    {
      "constant": true,
      "inputs": [
        {
          "name": "_owner",
          "type": "address"
        },
        {
          "name": "_operator",
          "type": "address"
        }
      ],
      "name": "isApprovedForAll",
      "outputs": [
        {
          "name": "",
          "type": "bool"
        }
      ],
      "payable": false,
      "stateMutability": "view",
      "type": "function"
    },
    {
      "inputs": [
        {
          "name": "_name",
          "type": "string"
        },
        {
          "name": "_symbol",
          "type": "string"
        }
      ],
      "payable": false,
      "stateMutability": "nonpayable",
      "type": "constructor"
    },
    {
      "anonymous": false,
      "inputs": [
        {
          "indexed": true,
          "name": "_from",
          "type": "address"
        },
        {
          "indexed": true,
          "name": "_to",
          "type": "address"
        },
        {
          "indexed": true,
          "name": "_tokenId",
          "type": "uint256"
        }
      ],
      "name": "Transfer",
      "type": "event"
    },
    {
      "anonymous": false,
      "inputs": [
        {
          "indexed": true,
          "name": "_owner",
          "type": "address"
        },
        {
          "indexed": true,
          "name": "_approved",
          "type": "address"
        },
        {
          "indexed": true,
          "name": "_tokenId",
          "type": "uint256"
        }
      ],
      "name": "Approval",
      "type": "event"
    },
    {
      "anonymous": false,
      "inputs": [
        {
          "indexed": true,
          "name": "_owner",
          "type": "address"
        },
        {
          "indexed": true,
          "name": "_operator",
          "type": "address"
        },
        {
          "indexed": false,
          "name": "_approved",
          "type": "bool"
        }
      ],
      "name": "ApprovalForAll",
      "type": "event"
    },
    {
      "constant": false,
      "inputs": [
        {
          "name": "_tokenId",
          "type": "uint256"
        }
      ],
      "name": "getOwner",
      "outputs": [
        {
          "name": "",
          "type": "address"
        }
      ],
      "payable": false,
      "stateMutability": "nonpayable",
      "type": "function"
    },
    {
      "constant": false,
      "inputs": [
        {
          "name": "_tokenId",
          "type": "uint256"
        },
        {
          "name": "_uri",
          "type": "string"
        }
      ],
      "name": "setURI",
      "outputs": [],
      "payable": false,
      "stateMutability": "nonpayable",
      "type": "function"
    },
    {
      "constant": true,
      "inputs": [
        {
          "name": "_tokenId",
          "type": "uint256"
        }
      ],
      "name": "getURI",
      "outputs": [
        {
          "name": "",
          "type": "string"
        }
      ],
      "payable": false,
      "stateMutability": "view",
      "type": "function"
    },
    {
      "constant": false,
      "inputs": [],
      "name": "createProperty",
      "outputs": [],
      "payable": false,
      "stateMutability": "nonpayable",
      "type": "function"
    },
    {
      "constant": true,
      "inputs": [],
      "name": "getProperties",
      "outputs": [
        {
          "name": "",
          "type": "uint256[]"
        }
      ],
      "payable": false,
      "stateMutability": "view",
      "type": "function"
    }
  ],
  "bytecode": "0x60806040523480156200001157600080fd5b506040516200253638038062002536833981018060405281019080805182019291906020018051820192919050505081816200007f6301ffc9a77c010000000000000000000000000000000000000000000000000000000002620001af640100000000026401000000009004565b620000bc6380ac58cd7c010000000000000000000000000000000000000000000000000000000002620001af640100000000026401000000009004565b620000f9634f558e797c010000000000000000000000000000000000000000000000000000000002620001af640100000000026401000000009004565b8160059080519060200190620001119291906200026d565b5080600690805190602001906200012a9291906200026d565b506200016863780e9d637c010000000000000000000000000000000000000000000000000000000002620001af640100000000026401000000009004565b620001a5635b5e139f7c010000000000000000000000000000000000000000000000000000000002620001af640100000000026401000000009004565b505050506200031c565b63ffffffff7c010000000000000000000000000000000000000000000000000000000002817bffffffffffffffffffffffffffffffffffffffffffffffffffffffff1916141515156200020157600080fd5b6001600080837bffffffffffffffffffffffffffffffffffffffffffffffffffffffff19167bffffffffffffffffffffffffffffffffffffffffffffffffffffffff1916815260200190815260200160002060006101000a81548160ff02191690831515021790555050565b828054600181600116156101000203166002900490600052602060002090601f016020900481019282601f10620002b057805160ff1916838001178555620002e1565b82800160010185558215620002e1579182015b82811115620002e0578251825591602001919060010190620002c3565b5b509050620002f09190620002f4565b5090565b6200031991905b8082111562000315576000816000905550600101620002fb565b5090565b90565b61220a806200032c6000396000f300608060405260043610610133576000357c0100000000000000000000000000000000000000000000000000000000900463ffffffff16806301ffc9a71461013857806306fdde031461019c578063081812fc1461022c578063095ea7b314610299578063167f9246146102e657806318160ddd146102fd57806319fa8f50146103285780631aa347dc1461039157806323b872dd146104375780632f745c59146104a457806342842e0e146105055780634f558e79146105725780634f6ccce7146105b75780636352211e146105f857806370a0823114610665578063862440e2146106bc57806395d89b4114610701578063a22cb46514610791578063b88d4fde146107e0578063c41a360a14610893578063c87b56dd14610900578063e985e9c5146109a6578063ec0cfd0b14610a21575b600080fd5b34801561014457600080fd5b5061018260048036038101908080357bffffffffffffffffffffffffffffffffffffffffffffffffffffffff19169060200190929190505050610a8d565b604051808215151515815260200191505060405180910390f35b3480156101a857600080fd5b506101b1610af4565b6040518080602001828103825283818151815260200191508051906020019080838360005b838110156101f15780820151818401526020810190506101d6565b50505050905090810190601f16801561021e5780820380516001836020036101000a031916815260200191505b509250505060405180910390f35b34801561023857600080fd5b5061025760048036038101908080359060200190929190505050610b96565b604051808273ffffffffffffffffffffffffffffffffffffffff1673ffffffffffffffffffffffffffffffffffffffff16815260200191505060405180910390f35b3480156102a557600080fd5b506102e4600480360381019080803573ffffffffffffffffffffffffffffffffffffffff16906020019092919080359060200190929190505050610bd3565b005b3480156102f257600080fd5b506102fb610d18565b005b34801561030957600080fd5b50610312610d2c565b6040518082815260200191505060405180910390f35b34801561033457600080fd5b5061033d610d39565b60405180827bffffffffffffffffffffffffffffffffffffffffffffffffffffffff19167bffffffffffffffffffffffffffffffffffffffffffffffffffffffff1916815260200191505060405180910390f35b34801561039d57600080fd5b506103bc60048036038101908080359060200190929190505050610d60565b6040518080602001828103825283818151815260200191508051906020019080838360005b838110156103fc5780820151818401526020810190506103e1565b50505050905090810190601f1680156104295780820380516001836020036101000a031916815260200191505b509250505060405180910390f35b34801561044357600080fd5b506104a2600480360381019080803573ffffffffffffffffffffffffffffffffffffffff169060200190929190803573ffffffffffffffffffffffffffffffffffffffff16906020019092919080359060200190929190505050610e15565b005b3480156104b057600080fd5b506104ef600480360381019080803573ffffffffffffffffffffffffffffffffffffffff16906020019092919080359060200190929190505050610f20565b6040518082815260200191505060405180910390f35b34801561051157600080fd5b50610570600480360381019080803573ffffffffffffffffffffffffffffffffffffffff169060200190929190803573ffffffffffffffffffffffffffffffffffffffff16906020019092919080359060200190929190505050610f97565b005b34801561057e57600080fd5b5061059d60048036038101908080359060200190929190505050610fb8565b604051808215151515815260200191505060405180910390f35b3480156105c357600080fd5b506105e26004803603810190808035906020019092919050505061102a565b6040518082815260200191505060405180910390f35b34801561060457600080fd5b5061062360048036038101908080359060200190929190505050611062565b604051808273ffffffffffffffffffffffffffffffffffffffff1673ffffffffffffffffffffffffffffffffffffffff16815260200191505060405180910390f35b34801561067157600080fd5b506106a6600480360381019080803573ffffffffffffffffffffffffffffffffffffffff1690602001909291905050506110e0565b6040518082815260200191505060405180910390f35b3480156106c857600080fd5b506106ff60048036038101908080359060200190929190803590602001908201803590602001919091929391929390505050611164565b005b34801561070d57600080fd5b5061071661127d565b6040518080602001828103825283818151815260200191508051906020019080838360005b8381101561075657808201518184015260208101905061073b565b50505050905090810190601f1680156107835780820380516001836020036101000a031916815260200191505b509250505060405180910390f35b34801561079d57600080fd5b506107de600480360381019080803573ffffffffffffffffffffffffffffffffffffffff16906020019092919080351515906020019092919050505061131f565b005b3480156107ec57600080fd5b50610891600480360381019080803573ffffffffffffffffffffffffffffffffffffffff169060200190929190803573ffffffffffffffffffffffffffffffffffffffff16906020019092919080359060200190929190803590602001908201803590602001908080601f016020809104026020016040519081016040528093929190818152602001838380828437820191505050505050919291929050505061145b565b005b34801561089f57600080fd5b506108be60048036038101908080359060200190929190505050611483565b604051808273ffffffffffffffffffffffffffffffffffffffff1673ffffffffffffffffffffffffffffffffffffffff16815260200191505060405180910390f35b34801561090c57600080fd5b5061092b600480360381019080803590602001909291905050506114c0565b6040518080602001828103825283818151815260200191508051906020019080838360005b8381101561096b578082015181840152602081019050610950565b50505050905090810190601f1680156109985780820380516001836020036101000a031916815260200191505b509250505060405180910390f35b3480156109b257600080fd5b50610a07600480360381019080803573ffffffffffffffffffffffffffffffffffffffff169060200190929190803573ffffffffffffffffffffffffffffffffffffffff169060200190929190505050611589565b604051808215151515815260200191505060405180910390f35b348015610a2d57600080fd5b50610a3661161d565b6040518080602001828103825283818151815260200191508051906020019060200280838360005b83811015610a79578082015181840152602081019050610a5e565b505050509050019250505060405180910390f35b6000806000837bffffffffffffffffffffffffffffffffffffffffffffffffffffffff19167bffffffffffffffffffffffffffffffffffffffffffffffffffffffff1916815260200190815260200160002060009054906101000a900460ff169050919050565b606060058054600181600116156101000203166002900480601f016020809104026020016040519081016040528092919081815260200182805460018160011615610100020316600290048015610b8c5780601f10610b6157610100808354040283529160200191610b8c565b820191906000526020600020905b815481529060010190602001808311610b6f57829003601f168201915b5050505050905090565b60006002600083815260200190815260200160002060009054906101000a900473ffffffffffffffffffffffffffffffffffffffff169050919050565b6000610bde82611062565b90508073ffffffffffffffffffffffffffffffffffffffff168373ffffffffffffffffffffffffffffffffffffffff1614151515610c1b57600080fd5b8073ffffffffffffffffffffffffffffffffffffffff163373ffffffffffffffffffffffffffffffffffffffff161480610c5b5750610c5a8133611589565b5b1515610c6657600080fd5b826002600084815260200190815260200160002060006101000a81548173ffffffffffffffffffffffffffffffffffffffff021916908373ffffffffffffffffffffffffffffffffffffffff160217905550818373ffffffffffffffffffffffffffffffffffffffff168273ffffffffffffffffffffffffffffffffffffffff167f8c5be1e5ebec7d5bd14f71427d1e84f3dd0314c0f7b2291e5b200ac8c7c3b92560405160405180910390a4505050565b610d2a336001600980549050016116b2565b565b6000600980549050905090565b6301ffc9a77c01000000000000000000000000000000000000000000000000000000000281565b6060600b60008381526020019081526020016000208054600181600116156101000203166002900480601f016020809104026020016040519081016040528092919081815260200182805460018160011615610100020316600290048015610e095780601f10610dde57610100808354040283529160200191610e09565b820191906000526020600020905b815481529060010190602001808311610dec57829003601f168201915b50505050509050919050565b610e1f3382611709565b1515610e2a57600080fd5b600073ffffffffffffffffffffffffffffffffffffffff168373ffffffffffffffffffffffffffffffffffffffff1614151515610e6657600080fd5b600073ffffffffffffffffffffffffffffffffffffffff168273ffffffffffffffffffffffffffffffffffffffff1614151515610ea257600080fd5b610eac838261179e565b610eb683826118a1565b610ec08282611a5d565b808273ffffffffffffffffffffffffffffffffffffffff168473ffffffffffffffffffffffffffffffffffffffff167fddf252ad1be2c89b69c2b068fc378daa952ba7f163c4a11628f55a4df523b3ef60405160405180910390a4505050565b6000610f2b836110e0565b82101515610f3857600080fd5b600760008473ffffffffffffffffffffffffffffffffffffffff1673ffffffffffffffffffffffffffffffffffffffff16815260200190815260200160002082815481101515610f8457fe5b9060005260206000200154905092915050565b610fb3838383602060405190810160405280600081525061145b565b505050565b6000806001600084815260200190815260200160002060009054906101000a900473ffffffffffffffffffffffffffffffffffffffff169050600073ffffffffffffffffffffffffffffffffffffffff168173ffffffffffffffffffffffffffffffffffffffff161415915050919050565b6000611034610d2c565b8210151561104157600080fd5b60098281548110151561105057fe5b90600052602060002001549050919050565b6000806001600084815260200190815260200160002060009054906101000a900473ffffffffffffffffffffffffffffffffffffffff169050600073ffffffffffffffffffffffffffffffffffffffff168173ffffffffffffffffffffffffffffffffffffffff16141515156110d757600080fd5b80915050919050565b60008073ffffffffffffffffffffffffffffffffffffffff168273ffffffffffffffffffffffffffffffffffffffff161415151561111d57600080fd5b600360008373ffffffffffffffffffffffffffffffffffffffff1673ffffffffffffffffffffffffffffffffffffffff168152602001908152602001600020549050919050565b823373ffffffffffffffffffffffffffffffffffffffff166001600083815260200190815260200160002060009054906101000a900473ffffffffffffffffffffffffffffffffffffffff1673ffffffffffffffffffffffffffffffffffffffff1614151561123b576040517f08c379a000000000000000000000000000000000000000000000000000000000815260040180806020018281038252600d8152602001807f6e6f7420746865206f776e65720000000000000000000000000000000000000081525060200191505060405180910390fd5b6112778484848080601f016020809104026020016040519081016040528093929190818152602001838380828437820191505050505050611b34565b50505050565b606060068054600181600116156101000203166002900480601f0160208091040260200160405190810160405280929190818152602001828054600181600116156101000203166002900480156113155780601f106112ea57610100808354040283529160200191611315565b820191906000526020600020905b8154815290600101906020018083116112f857829003601f168201915b5050505050905090565b3373ffffffffffffffffffffffffffffffffffffffff168273ffffffffffffffffffffffffffffffffffffffff161415151561135a57600080fd5b80600460003373ffffffffffffffffffffffffffffffffffffffff1673ffffffffffffffffffffffffffffffffffffffff16815260200190815260200160002060008473ffffffffffffffffffffffffffffffffffffffff1673ffffffffffffffffffffffffffffffffffffffff16815260200190815260200160002060006101000a81548160ff0219169083151502179055508173ffffffffffffffffffffffffffffffffffffffff163373ffffffffffffffffffffffffffffffffffffffff167f17307eab39ab6107e8899845ad3d59bd9653f200f220920489ca2b5937696c3183604051808215151515815260200191505060405180910390a35050565b611466848484610e15565b61147284848484611b74565b151561147d57600080fd5b50505050565b60006001600083815260200190815260200160002060009054906101000a900473ffffffffffffffffffffffffffffffffffffffff169050919050565b60606114cb82610fb8565b15156114d657600080fd5b600b60008381526020019081526020016000208054600181600116156101000203166002900480601f01602080910402602001604051908101604052809291908181526020018280546001816001161561010002031660029004801561157d5780601f106115525761010080835404028352916020019161157d565b820191906000526020600020905b81548152906001019060200180831161156057829003601f168201915b50505050509050919050565b6000600460008473ffffffffffffffffffffffffffffffffffffffff1673ffffffffffffffffffffffffffffffffffffffff16815260200190815260200160002060008373ffffffffffffffffffffffffffffffffffffffff1673ffffffffffffffffffffffffffffffffffffffff16815260200190815260200160002060009054906101000a900460ff16905092915050565b6060600760003373ffffffffffffffffffffffffffffffffffffffff1673ffffffffffffffffffffffffffffffffffffffff1681526020019081526020016000208054806020026020016040519081016040528092919081815260200182805480156116a857602002820191906000526020600020905b815481526020019060010190808311611694575b5050505050905090565b6116bc8282611d96565b600980549050600a60008381526020019081526020016000208190555060098190806001815401808255809150509060018203906000526020600020016000909192909190915055505050565b60008061171583611062565b90508073ffffffffffffffffffffffffffffffffffffffff168473ffffffffffffffffffffffffffffffffffffffff16148061178457508373ffffffffffffffffffffffffffffffffffffffff1661176c84610b96565b73ffffffffffffffffffffffffffffffffffffffff16145b8061179557506117948185611589565b5b91505092915050565b8173ffffffffffffffffffffffffffffffffffffffff166117be82611062565b73ffffffffffffffffffffffffffffffffffffffff161415156117e057600080fd5b600073ffffffffffffffffffffffffffffffffffffffff166002600083815260200190815260200160002060009054906101000a900473ffffffffffffffffffffffffffffffffffffffff1673ffffffffffffffffffffffffffffffffffffffff1614151561189d5760006002600083815260200190815260200160002060006101000a81548173ffffffffffffffffffffffffffffffffffffffff021916908373ffffffffffffffffffffffffffffffffffffffff1602179055505b5050565b60008060006118b08585611e3c565b6008600085815260200190815260200160002054925061191c6001600760008873ffffffffffffffffffffffffffffffffffffffff1673ffffffffffffffffffffffffffffffffffffffff16815260200190815260200160002080549050611f6b90919063ffffffff16565b9150600760008673ffffffffffffffffffffffffffffffffffffffff1673ffffffffffffffffffffffffffffffffffffffff1681526020019081526020016000208281548110151561196a57fe5b9060005260206000200154905080600760008773ffffffffffffffffffffffffffffffffffffffff1673ffffffffffffffffffffffffffffffffffffffff168152602001908152602001600020848154811015156119c457fe5b9060005260206000200181905550600760008673ffffffffffffffffffffffffffffffffffffffff1673ffffffffffffffffffffffffffffffffffffffff168152602001908152602001600020805480919060019003611a24919061210d565b50600060086000868152602001908152602001600020819055508260086000838152602001908152602001600020819055505050505050565b6000611a698383611f84565b600760008473ffffffffffffffffffffffffffffffffffffffff1673ffffffffffffffffffffffffffffffffffffffff168152602001908152602001600020805490509050600760008473ffffffffffffffffffffffffffffffffffffffff1673ffffffffffffffffffffffffffffffffffffffff168152602001908152602001600020829080600181540180825580915050906001820390600052602060002001600090919290919091505550806008600084815260200190815260200160002081905550505050565b611b3d82610fb8565b1515611b4857600080fd5b80600b60008481526020019081526020016000209080519060200190611b6f929190612139565b505050565b600080611b968573ffffffffffffffffffffffffffffffffffffffff166120de565b1515611ba55760019150611d8d565b8473ffffffffffffffffffffffffffffffffffffffff1663150b7a02338887876040518563ffffffff167c0100000000000000000000000000000000000000000000000000000000028152600401808573ffffffffffffffffffffffffffffffffffffffff1673ffffffffffffffffffffffffffffffffffffffff1681526020018473ffffffffffffffffffffffffffffffffffffffff1673ffffffffffffffffffffffffffffffffffffffff16815260200183815260200180602001828103825283818151815260200191508051906020019080838360005b83811015611c9a578082015181840152602081019050611c7f565b50505050905090810190601f168015611cc75780820380516001836020036101000a031916815260200191505b5095505050505050602060405180830381600087803b158015611ce957600080fd5b505af1158015611cfd573d6000803e3d6000fd5b505050506040513d6020811015611d1357600080fd5b8101908080519060200190929190505050905063150b7a027c0100000000000000000000000000000000000000000000000000000000027bffffffffffffffffffffffffffffffffffffffffffffffffffffffff1916817bffffffffffffffffffffffffffffffffffffffffffffffffffffffff19161491505b50949350505050565b600073ffffffffffffffffffffffffffffffffffffffff168273ffffffffffffffffffffffffffffffffffffffff1614151515611dd257600080fd5b611ddc8282611a5d565b808273ffffffffffffffffffffffffffffffffffffffff16600073ffffffffffffffffffffffffffffffffffffffff167fddf252ad1be2c89b69c2b068fc378daa952ba7f163c4a11628f55a4df523b3ef60405160405180910390a45050565b8173ffffffffffffffffffffffffffffffffffffffff16611e5c82611062565b73ffffffffffffffffffffffffffffffffffffffff16141515611e7e57600080fd5b611ed16001600360008573ffffffffffffffffffffffffffffffffffffffff1673ffffffffffffffffffffffffffffffffffffffff16815260200190815260200160002054611f6b90919063ffffffff16565b600360008473ffffffffffffffffffffffffffffffffffffffff1673ffffffffffffffffffffffffffffffffffffffff1681526020019081526020016000208190555060006001600083815260200190815260200160002060006101000a81548173ffffffffffffffffffffffffffffffffffffffff021916908373ffffffffffffffffffffffffffffffffffffffff1602179055505050565b6000828211151515611f7957fe5b818303905092915050565b600073ffffffffffffffffffffffffffffffffffffffff166001600083815260200190815260200160002060009054906101000a900473ffffffffffffffffffffffffffffffffffffffff1673ffffffffffffffffffffffffffffffffffffffff16141515611ff257600080fd5b816001600083815260200190815260200160002060006101000a81548173ffffffffffffffffffffffffffffffffffffffff021916908373ffffffffffffffffffffffffffffffffffffffff1602179055506120976001600360008573ffffffffffffffffffffffffffffffffffffffff1673ffffffffffffffffffffffffffffffffffffffff168152602001908152602001600020546120f190919063ffffffff16565b600360008473ffffffffffffffffffffffffffffffffffffffff1673ffffffffffffffffffffffffffffffffffffffff168152602001908152602001600020819055505050565b600080823b905060008111915050919050565b6000818301905082811015151561210457fe5b80905092915050565b8154818355818111156121345781836000526020600020918201910161213391906121b9565b5b505050565b828054600181600116156101000203166002900490600052602060002090601f016020900481019282601f1061217a57805160ff19168380011785556121a8565b828001600101855582156121a8579182015b828111156121a757825182559160200191906001019061218c565b5b5090506121b591906121b9565b5090565b6121db91905b808211156121d75760008160009055506001016121bf565b5090565b905600a165627a7a7230582031bafe81091b3bd3d42261776b65c3cb1a6ea5fc4be2da7f95d689ffe8f675450029",
  "source": "pragma solidity ^0.4.24;\n\nimport 'zeppelin-solidity/contracts/token/ERC721/ERC721Token.sol';\n\ncontract Property is ERC721Token {\n  constructor(string _name, string _symbol) public ERC721Token(_name, _symbol) {\n    //leave empty for now, we've passed through the args above (i.e. super)\n  }\n\n  modifier onlyOwner(uint256 _tokenId) {\n    require(tokenOwner[_tokenId] == msg.sender, \"not the owner\");\n    _;\n  }\n\n  function getOwner(uint256 _tokenId) public returns(address) {\n    return tokenOwner[_tokenId];\n  }\n\n  function setURI(uint256 _tokenId, string _uri) external onlyOwner(_tokenId) {\n    _setTokenURI(_tokenId, _uri);\n  }\n\n  function getURI(uint256 _tokenId) external view returns(string) {\n    return tokenURIs[_tokenId];\n  }\n\n  function createProperty() external {\n    _mint(msg.sender, allTokens.length + 1);\n  }\n\n  function getProperties() external view returns(uint256[]) {\n      return ownedTokens[msg.sender];\n  }\n}\n",
  "sourcePath": "/Users/vincent.chan/Documents/blockchain/W4/bnb/contracts/Property.sol",
  "compiler": {
    "name": "solc",
    "version": "0.4.24+commit.e67f0147.Emscripten.clang"
  },
  "schemaVersion": "2.0.1",
  "updatedAt": "2018-12-04T03:50:38.552Z"
}